{
  "_format": "hh-sol-artifact-1",
  "contractName": "Gofundme",
  "sourceName": "contracts/Gofundme.sol",
  "abi": [
    {
      "inputs": [
        {
          "internalType": "address",
          "name": "_token",
          "type": "address"
        }
      ],
      "stateMutability": "nonpayable",
      "type": "constructor"
    },
    {
      "inputs": [
        {
          "internalType": "uint256",
          "name": "requested",
          "type": "uint256"
        },
        {
          "internalType": "uint256",
          "name": "total",
          "type": "uint256"
        }
      ],
      "name": "campaignNotAvailable",
      "type": "error"
    },
    {
      "anonymous": false,
      "inputs": [
        {
          "indexed": false,
          "internalType": "address",
          "name": "creator",
          "type": "address"
        },
        {
          "indexed": false,
          "internalType": "uint256",
          "name": "id",
          "type": "uint256"
        },
        {
          "indexed": false,
          "internalType": "uint256",
          "name": "amt",
          "type": "uint256"
        }
      ],
      "name": "claim",
      "type": "event"
    },
    {
      "anonymous": false,
      "inputs": [
        {
          "indexed": false,
          "internalType": "address",
          "name": "sender",
          "type": "address"
        },
        {
          "indexed": false,
          "internalType": "uint256",
          "name": "amt",
          "type": "uint256"
        }
      ],
      "name": "donate",
      "type": "event"
    },
    {
      "anonymous": false,
      "inputs": [
        {
          "indexed": false,
          "internalType": "address",
          "name": "creator",
          "type": "address"
        },
        {
          "indexed": false,
          "internalType": "uint256",
          "name": "amount",
          "type": "uint256"
        },
        {
          "indexed": false,
          "internalType": "uint256",
          "name": "pledged",
          "type": "uint256"
        },
        {
          "indexed": false,
          "internalType": "string",
          "name": "decs",
          "type": "string"
        },
        {
          "indexed": false,
          "internalType": "bool",
          "name": "claimed",
          "type": "bool"
        }
      ],
      "name": "lunch",
      "type": "event"
    },
    {
      "inputs": [
        {
          "internalType": "uint256",
          "name": "",
          "type": "uint256"
        }
      ],
      "name": "campaigns",
      "outputs": [
        {
          "internalType": "address",
          "name": "creator",
          "type": "address"
        },
        {
          "internalType": "uint256",
          "name": "amount",
          "type": "uint256"
        },
        {
          "internalType": "uint256",
          "name": "pledged",
          "type": "uint256"
        },
        {
          "internalType": "string",
          "name": "description",
          "type": "string"
        },
        {
          "internalType": "bool",
          "name": "claimed",
          "type": "bool"
        }
      ],
      "stateMutability": "view",
      "type": "function"
    },
    {
      "inputs": [
        {
          "internalType": "uint256",
          "name": "_id",
          "type": "uint256"
        }
      ],
      "name": "claimPledges",
      "outputs": [],
      "stateMutability": "payable",
      "type": "function"
    },
    {
      "inputs": [
        {
          "internalType": "uint256",
          "name": "_amt",
          "type": "uint256"
        },
        {
          "internalType": "string",
          "name": "_desc",
          "type": "string"
        }
      ],
      "name": "createCampaingn",
      "outputs": [],
      "stateMutability": "nonpayable",
      "type": "function"
    },
    {
      "inputs": [
        {
          "internalType": "uint256",
          "name": "_id",
          "type": "uint256"
        },
        {
          "internalType": "uint256",
          "name": "_amt",
          "type": "uint256"
        }
      ],
      "name": "donateToCampaign",
      "outputs": [],
      "stateMutability": "payable",
      "type": "function"
    },
    {
      "inputs": [
        {
          "internalType": "uint256",
          "name": "_id",
          "type": "uint256"
        }
      ],
      "name": "getCampaign",
      "outputs": [
        {
          "internalType": "address",
          "name": "",
          "type": "address"
        },
        {
          "internalType": "uint256",
          "name": "",
          "type": "uint256"
        },
        {
          "internalType": "uint256",
          "name": "",
          "type": "uint256"
        },
        {
          "internalType": "string",
          "name": "",
          "type": "string"
        },
        {
          "internalType": "bool",
          "name": "",
          "type": "bool"
        }
      ],
      "stateMutability": "view",
      "type": "function"
    },
    {
      "inputs": [],
      "name": "token",
      "outputs": [
        {
          "internalType": "contract IERC20",
          "name": "",
          "type": "address"
        }
      ],
      "stateMutability": "view",
      "type": "function"
    },
    {
      "inputs": [],
      "name": "totalCampaigns",
      "outputs": [
        {
          "internalType": "uint256",
          "name": "",
          "type": "uint256"
        }
      ],
      "stateMutability": "view",
      "type": "function"
    }
  ],
  "bytecode": "0x60a06040523480156200001157600080fd5b50604051620016c7380380620016c783398181016040528101906200003791906200008c565b8073ffffffffffffffffffffffffffffffffffffffff1660808173ffffffffffffffffffffffffffffffffffffffff1660601b815250505062000111565b6000815190506200008681620000f7565b92915050565b600060208284031215620000a557620000a4620000f2565b5b6000620000b58482850162000075565b91505092915050565b6000620000cb82620000d2565b9050919050565b600073ffffffffffffffffffffffffffffffffffffffff82169050919050565b600080fd5b6200010281620000be565b81146200010e57600080fd5b50565b60805160601c61158262000145600039600081816102dc0152818161045a015281816109290152610a4801526115826000f3fe6080604052600436106100705760003560e01c80635598f8cc1161004e5780635598f8cc146100fd5780635a7d650c1461013e578063e695daf014610167578063fc0c546a1461018357610070565b806302932f5614610075578063141961bc146100a05780632b7216e5146100e1575b600080fd5b34801561008157600080fd5b5061008a6101ae565b6040516100979190611109565b60405180910390f35b3480156100ac57600080fd5b506100c760048036038101906100c29190610cbf565b6101b8565b6040516100d8959493929190610ff4565b60405180910390f35b6100fb60048036038101906100f69190610d75565b6102b3565b005b34801561010957600080fd5b50610124600480360381019061011f9190610cbf565b610561565b604051610135959493929190610ff4565b60405180910390f35b34801561014a57600080fd5b5061016560048036038101906101609190610d19565b610674565b005b610181600480360381019061017c9190610cbf565b6107d3565b005b34801561018f57600080fd5b50610198610a46565b6040516101a5919061104e565b60405180910390f35b6000600154905090565b600081815481106101c857600080fd5b90600052602060002090600502016000915090508060000160009054906101000a900473ffffffffffffffffffffffffffffffffffffffff169080600101549080600201549080600301805461021d906112e7565b80601f0160208091040260200160405190810160405280929190818152602001828054610249906112e7565b80156102965780601f1061026b57610100808354040283529160200191610296565b820191906000526020600020905b81548152906001019060200180831161027957829003601f168201915b5050505050908060040160009054906101000a900460ff16905085565b60008083815481106102c8576102c76113a8565b5b9060005260206000209060050201905060007f000000000000000000000000000000000000000000000000000000000000000073ffffffffffffffffffffffffffffffffffffffff166370a08231336040518263ffffffff1660e01b81526004016103339190610ee8565b60206040518083038186803b15801561034b57600080fd5b505afa15801561035f573d6000803e3d6000fd5b505050506040513d601f19601f820116820180604052508101906103839190610cec565b116103c3576040517f08c379a00000000000000000000000000000000000000000000000000000000081526004016103ba90611089565b60405180910390fd5b806001015481600201541061040d576040517f08c379a000000000000000000000000000000000000000000000000000000000815260040161040490611069565b60405180910390fd5b60015483111561045857826001546040517f726108cc00000000000000000000000000000000000000000000000000000000815260040161044f929190611124565b60405180910390fd5b7f000000000000000000000000000000000000000000000000000000000000000073ffffffffffffffffffffffffffffffffffffffff166323b872dd3330856040518463ffffffff1660e01b81526004016104b593929190610f03565b602060405180830381600087803b1580156104cf57600080fd5b505af11580156104e3573d6000803e3d6000fd5b505050506040513d601f19601f820116820180604052508101906105079190610c92565b508181600201600082825461051c91906111bf565b925050819055507fe69d849da88bd5dbe7f838a066875e8d1429692f9cfc4bc2f28c610b75526ebb3383604051610554929190610f3a565b60405180910390a1505050565b600080600060606000806000878154811061057f5761057e6113a8565b5b906000526020600020906005020190508060000160009054906101000a900473ffffffffffffffffffffffffffffffffffffffff1681600101548260020154836003018460040160009054906101000a900460ff168180546105e0906112e7565b80601f016020809104026020016040519081016040528092919081815260200182805461060c906112e7565b80156106595780601f1061062e57610100808354040283529160200191610659565b820191906000526020600020905b81548152906001019060200180831161063c57829003601f168201915b50505050509150955095509550955095505091939590929450565b6001805461068291906111bf565b60018190555060006040518060a001604052803373ffffffffffffffffffffffffffffffffffffffff1681526020018481526020016000815260200183815260200160001515815250908060018154018082558091505060019003906000526020600020906005020160009091909190915060008201518160000160006101000a81548173ffffffffffffffffffffffffffffffffffffffff021916908373ffffffffffffffffffffffffffffffffffffffff1602179055506020820151816001015560408201518160020155606082015181600301908051906020019061076b929190610a6a565b5060808201518160040160006101000a81548160ff02191690831515021790555050507fb0d1d41e13b2fe12f677af2f1d0fa8a5817d753f6155bc24a5f2c69cb8726120338360008460006040516107c7959493929190610f63565b60405180910390a15050565b60008082815481106107e8576107e76113a8565b5b906000526020600020906005020190508060000160009054906101000a900473ffffffffffffffffffffffffffffffffffffffff1673ffffffffffffffffffffffffffffffffffffffff163373ffffffffffffffffffffffffffffffffffffffff161461088a576040517f08c379a0000000000000000000000000000000000000000000000000000000008152600401610881906110c9565b60405180910390fd5b8060010154816002015410156108d5576040517f08c379a00000000000000000000000000000000000000000000000000000000081526004016108cc906110e9565b60405180910390fd5b8060040160009054906101000a900460ff1615610927576040517f08c379a000000000000000000000000000000000000000000000000000000000815260040161091e906110a9565b60405180910390fd5b7f000000000000000000000000000000000000000000000000000000000000000073ffffffffffffffffffffffffffffffffffffffff1663a9059cbb3383600201546040518363ffffffff1660e01b8152600401610986929190610f3a565b602060405180830381600087803b1580156109a057600080fd5b505af11580156109b4573d6000803e3d6000fd5b505050506040513d601f19601f820116820180604052508101906109d89190610c92565b5060018160040160006101000a81548160ff021916908315150217905550600080610a039190610af0565b7f2bc43fd95c713ea934008687d87849f8d8924f8cdd06b96f5dd9df9cae95f86033838360020154604051610a3a93929190610fbd565b60405180910390a15050565b7f000000000000000000000000000000000000000000000000000000000000000081565b828054610a76906112e7565b90600052602060002090601f016020900481019282610a985760008555610adf565b82601f10610ab157805160ff1916838001178555610adf565b82800160010185558215610adf579182015b82811115610ade578251825591602001919060010190610ac3565b5b509050610aec9190610b14565b5090565b5080546000825560050290600052602060002090810190610b119190610b31565b50565b5b80821115610b2d576000816000905550600101610b15565b5090565b5b80821115610b9f57600080820160006101000a81549073ffffffffffffffffffffffffffffffffffffffff021916905560018201600090556002820160009055600382016000610b829190610ba3565b6004820160006101000a81549060ff021916905550600501610b32565b5090565b508054610baf906112e7565b6000825580601f10610bc15750610be0565b601f016020900490600052602060002090810190610bdf9190610b14565b5b50565b6000610bf6610bf184611172565b61114d565b905082815260208101848484011115610c1257610c1161140b565b5b610c1d8482856112a5565b509392505050565b600081519050610c348161151e565b92915050565b600082601f830112610c4f57610c4e611406565b5b8135610c5f848260208601610be3565b91505092915050565b600081359050610c7781611535565b92915050565b600081519050610c8c81611535565b92915050565b600060208284031215610ca857610ca7611415565b5b6000610cb684828501610c25565b91505092915050565b600060208284031215610cd557610cd4611415565b5b6000610ce384828501610c68565b91505092915050565b600060208284031215610d0257610d01611415565b5b6000610d1084828501610c7d565b91505092915050565b60008060408385031215610d3057610d2f611415565b5b6000610d3e85828601610c68565b925050602083013567ffffffffffffffff811115610d5f57610d5e611410565b5b610d6b85828601610c3a565b9150509250929050565b60008060408385031215610d8c57610d8b611415565b5b6000610d9a85828601610c68565b9250506020610dab85828601610c68565b9150509250929050565b610dbe81611215565b82525050565b610dcd81611227565b82525050565b610ddc8161125d565b82525050565b610deb8161126f565b82525050565b6000610dfc826111a3565b610e0681856111ae565b9350610e168185602086016112b4565b610e1f8161141a565b840191505092915050565b6000610e37600d836111ae565b9150610e428261142b565b602082019050919050565b6000610e5a601d836111ae565b9150610e6582611454565b602082019050919050565b6000610e7d6024836111ae565b9150610e888261147d565b604082019050919050565b6000610ea0601d836111ae565b9150610eab826114cc565b602082019050919050565b6000610ec36018836111ae565b9150610ece826114f5565b602082019050919050565b610ee281611253565b82525050565b6000602082019050610efd6000830184610db5565b92915050565b6000606082019050610f186000830186610db5565b610f256020830185610db5565b610f326040830184610ed9565b949350505050565b6000604082019050610f4f6000830185610db5565b610f5c6020830184610ed9565b9392505050565b600060a082019050610f786000830188610db5565b610f856020830187610ed9565b610f926040830186610de2565b8181036060830152610fa48185610df1565b9050610fb36080830184610dc4565b9695505050505050565b6000606082019050610fd26000830186610db5565b610fdf6020830185610ed9565b610fec6040830184610ed9565b949350505050565b600060a0820190506110096000830188610db5565b6110166020830187610ed9565b6110236040830186610ed9565b81810360608301526110358185610df1565b90506110446080830184610dc4565b9695505050505050565b60006020820190506110636000830184610dd3565b92915050565b6000602082019050818103600083015261108281610e2a565b9050919050565b600060208201905081810360008301526110a281610e4d565b9050919050565b600060208201905081810360008301526110c281610e70565b9050919050565b600060208201905081810360008301526110e281610e93565b9050919050565b6000602082019050818103600083015261110281610eb6565b9050919050565b600060208201905061111e6000830184610ed9565b92915050565b60006040820190506111396000830185610ed9565b6111466020830184610ed9565b9392505050565b6000611157611168565b90506111638282611319565b919050565b6000604051905090565b600067ffffffffffffffff82111561118d5761118c6113d7565b5b6111968261141a565b9050602081019050919050565b600081519050919050565b600082825260208201905092915050565b60006111ca82611253565b91506111d583611253565b9250827fffffffffffffffffffffffffffffffffffffffffffffffffffffffffffffffff0382111561120a5761120961134a565b5b828201905092915050565b600061122082611233565b9050919050565b60008115159050919050565b600073ffffffffffffffffffffffffffffffffffffffff82169050919050565b6000819050919050565b600061126882611281565b9050919050565b600061127a82611253565b9050919050565b600061128c82611293565b9050919050565b600061129e82611233565b9050919050565b82818337600083830152505050565b60005b838110156112d25780820151818401526020810190506112b7565b838111156112e1576000848401525b50505050565b600060028204905060018216806112ff57607f821691505b6020821081141561131357611312611379565b5b50919050565b6113228261141a565b810181811067ffffffffffffffff82111715611341576113406113d7565b5b80604052505050565b7f4e487b7100000000000000000000000000000000000000000000000000000000600052601160045260246000fd5b7f4e487b7100000000000000000000000000000000000000000000000000000000600052602260045260246000fd5b7f4e487b7100000000000000000000000000000000000000000000000000000000600052603260045260246000fd5b7f4e487b7100000000000000000000000000000000000000000000000000000000600052604160045260246000fd5b600080fd5b600080fd5b600080fd5b600080fd5b6000601f19601f8301169050919050565b7f476f616c20616368696576656400000000000000000000000000000000000000600082015250565b7f596f75206861766520696e73756666696369656e742062616c616e6365000000600082015250565b7f596f75206861766520616c726561647920636c61696d65642074686520706c6560008201527f6467657300000000000000000000000000000000000000000000000000000000602082015250565b7f596f752063616e277420776974686472617720746869732066756e6473000000600082015250565b7f63616d7069676e20676f616c206e6f7420726561636865640000000000000000600082015250565b61152781611227565b811461153257600080fd5b50565b61153e81611253565b811461154957600080fd5b5056fea26469706673582212204fac9a7ae58ba1dc89a38701e2afcb8b78afe1f76286a3a3fc7372d0f9f7f1bb64736f6c63430008070033",
  "linkReferences": {},
  "deployedLinkReferences": {}
}